:0500000002010081BDBA
:02000B0081264C
:0F010000758901758CD8758AF079007A007B00BB
:10010F007C007D00D2A9D2AFD297D2A8D288C28765
:10011F00C290C291C292C29330963420A034C2B61C
:10012F00D2B37479B1945112C2B3D2B7747CB19473
:10013F005112C2B7D2B5741CB1945112C2B5D2B616
:0F014F007439B194511208B8FFCED2A0020161E9
:0F015E00020192D2B3C2B67450B1945112C2B31F
:10016D00D2B77455B1945112C2B7D2B57430B1949F
:10017D005112C2B5D2B67478B194511208B8FF02BB
:10018D00C2A00201275117D2A8D288308C1AC2B64C
:10019D00D2B331FEC2B3D2B75103C2B7D2B55108F3
:0F01AD00C2B5D2B6510D80E320A01EC2B6D2B3A8
:1001BC0031F9C2B3D2B731FEC2B7D2B55103C2B511
:1001CC00D2B6510808B8FF22D2A0C2B6D2B331FEC3
:1001DC00C2B3D2B75103C2B7D2B55108C2B5D2B669
:0F01EC00510D08B8FF04C2A0D2A8020198511CFF
:0F01FB00511222517C51122251DC5112227150AB
:0F020A0051122271B05112227FFFDFFE227F645A
:10021900DFFE22BA0005743FB19422BA01057406C3
:10022900B19422BA0205745BB19422BA0305744FE2
:10023900B19422BA04057466B19422BA0505746DA5
:10024900B19422BA0605747DB19422BA07057407E0
:10025900B19422BA0805747FB19422BA0905746F62
:10026900B19422BA14057400B19422BAFFAD740096
:10027900B19422B90005743FB19422B901057406FD
:10028900B19422B90205745BB19422B90305744F84
:10029900B19422B904057466B19422B90505746D47
:1002A900B19422B90605747DB19422B90705740782
:1002B900B19422B90805747FB19422B90905746F04
:1002C900B19422B91405745BB19422B9FFA5747174
:1002D900B19422BB0007743F2480B19422BB01076B
:1002E90074062480B19422BB0207745B2480B19404
:1002F90022BB0307744F2480B19422BB04077466A0
:0F0309002480B19422BB0507746D2480B1942227
:0F031800BB0607747D2480B19422BB07077407CE
:0F0327002480B19422BB0807747F2480B19422F4
:0F033600BB0907746F2480B19422BB1405747047
:10034500B19422BBFF917454B19422BC0005743F53
:10035500B19422BC01057406B19422BC0205745BFC
:10036500B19422BC0305744FB19422BC0405746694
:10037500B19422BC0505746DB19422BC0605747D4B
:10038500B19422BC07057407B19422BC0805747F9B
:10039500B19422BC0905746FB19422BC1405744054
:1003A500B19422BCFFA5745EB19422BD0007743FD1
:0F03B5002480B19422BD010774062480B19422E4
:0F03C400BD0207745B2480B19422BD0307744F00
:0F03D3002480B19422BD040774662480B1942263
:0F03E200BD0507746D2480B19422BD0607747D9C
:0F03F1002480B19422BD070774072480B19422A1
:0F040000BD0807747F2480B19422BD0907746F73
:0F040F002480B19422BD140774002480B194227C
:10041E00BDFF8F7400B19422C28C758CD8758AF092
:10042E0030870630853D02048F30860A7A007900C7
:10043E007B057C01C28620B2001AEAB4FF6E7A09EF
:10044E00B2A019E9B4FF657909B2A11BEBB4FF5C48
:0F045E007B09B2A21CECB4FF53B2A3D287D286A3
:0E046D00C2857A3779147B147C147D140AEA58
:0F047B00B4FF3CB2A0C28C7AFF79FF7BFF7CFFFD
:10048A007DFFD285320AEAB40A267A00B2A009E9C7
:10049A00B40A1D7900B2A10BEBB40A147B00B2A214
:1004AA000CECB4060B7C00B2A30DEDB40A027D007D
:0F04BA00D28C32511730B2013230843B20871A76
:0F04C900308617B168B12DC297C296D2977A00CC
:1004D80079007B007C007D00D28C32B13C208719EA
:1004E800208616308413D287D297D2867A00790074
:0F04F8007B007C007D00C28432C28CC2A85112EE
:0F05070051125112C28CD2883230B20122783098
:100516007ED67FEC00DFFEDEF9D8F57E1D7FB100CA
:10052600DFFEDEF90205B10030B2FC511730B2F73A
:10053600511730B2F222C2B6D2B37478B1945112C6
:10054600C2B3D2B77450B1945112C2B7D2B574784F
:0E055600B1945112C2B5D2B6746DB194511267
:1005640030B2D522C2B6D2B37473B1945112C2B3AD
:10057400D2B7746DB1945112C2B7D2B57454B19458
:100584005112C2B5D2B67430B194511230B2D522E0
:0F059400D2A67E0833400BC2A7C2A5D2A5DEF5C2
:0E05A300C2A622D2A7C2A5D2A5DEEAC2A62217
:00000001FF
